S01200004652444D5F4B4C34365A2E737265632F
S113000000600020C97B0000457C0000457C0000A6
S1130010457C0000457C0000457C0000457C0000D8
S1130020457C0000457C0000457C0000457C0000C8
S1130030457C0000457C0000457C0000457C0000B8
S1130040457C0000457C0000457C0000457C0000A8
S1130050457C0000457C0000457C0000457C000098
S1130060B17E0000457C0000457C0000457C00001A
S11300701D870000457C0000457C0000457C000095
S1130080457C0000457C0000457C0000457C000068
S1130090457C0000457C0000457C0000457C000058
S11300A0457C0000457C0000457C0000457C000048
S11300B0917E0000457C0000457C0000457C0000EA
S1130400FFFFFFFFFFFFFFFFFFFFFFFF7EFBFFFF7D
S113041002B4714649084900095C49008E4402BC93
S11304207047C046002941D010B4041C4C40A44677
S113043001230022002900D54942002800D540426A
S113044088422CD301242407A14204D2814202D23F
S113045009011B01F8E7E400A14204D2814202D25F
S113046049005B00F8E7884201D3401A1A434C085C
S1130470A04202D3001B5C0822438C08A04202D392
S1130480001B9C082243CC08A04202D3001BDC08BA
S11304902243002803D01B0901D00909E3E7101CFB
S11304A06446002C00D5404210BC7047002806D09A
S11304B003DB0020C043400801E08020000607B4AD
S11304C0024802A14018029003BDC0461900000072
S11304D00029EBD003B5FFF7A7FF0EBC4243891AEE
S11304E01847C0467047C0468446101C62468C4676
S11304F0191C634600E0C0461FB50BF0D3FB00286F
S113050001D40021C8421FBD10B50BF027FB4042A7
S1130510013010BD10B50BF0C5FB002801DB002035
S113052010BD012010BDC04610B50BF0BBFB002868
S113053001DD002010BD012010BDC04610B50BF038
S11305404BFB002801DC002010BD012010BDC0467B
S113055010B50BF041FB002801DA002010BD01208A
S113056010BDC0468446081C6146FFE71FB50AF06B
S11305704CFA002801D40021C8421FBD10B50AF06E
S1130580D7F94042013010BD10B50AF03EFA0028F8
S113059001DB002010BD012010BDC04610B50AF0DB
S11305A034FA002801DD002010BD012010BDC04632
S11305B010B50AF0E0F9002801DC002010BD01208C
S11305C010BDC04610B50AF0D6F9002801DA0020A3
S11305D010BD012010BDC04603B471464908400057
S11305E04900095A49008E4403BC7047002934D09D
S11305F00123002210B488422CD301242407A142F1
S113060004D2814202D209011B01F8E7E400A142AD
S113061004D2814202D249005B00F8E7884201D348
S1130620401A1A434C08A04202D3001B5C08224320
S11306308C08A04202D3001B9C082243CC08A04291
S113064002D3001BDC082243002803D01B0901D07D
S11306500909E3E7101C10BC7047002801D00020F2
S1130660C04307B4024802A14018029003BDC0462B
S113067075FEFFFF0029F0D003B5FFF7B9FF0EBCEC
S11306804243891A1847C0461C2101231B0498427F
S113069001D3000C10391B0A984201D3000A08390F
S11306A01B09984201D30009043902A2105C4018C6
S11306B07047C0460403020201010101000000006A
S11306C00000000008B5054B054803331B1A062B30
S11306D003D9044B002B00D0984708BDA4E2FF1FA8
S11306E0A4E2FF1F000000000648074908B5091AE4
S11306F08910CB0F5918491003D0044B002B00D09C
S1130700984708BDA4E2FF1FA4E2FF1F00000000F9
S1130710084B10B51A781C1C002A09D1FFF7D2FF28
S1130720054B002B02D0054800E000BF01232370D5
S113073010BDC046A4E2FF1F00000000DCC9000099
S113074008B5094B002B03D00848094900E000BF55
S113075008480368002B03D0074B002B00D09847B0
S1130760FFF7C2FF08BDC04600000000DCC900005E
S1130770A8E2FF1FA4E2FF1F00000000034B596919
S11307801A8A52185A6101221A71704704F6FF1F1F
S11307907047C046024B0122D9780A43DA70704789
S11307A004F6FF1F024B0222D9780A43DA7070471D
S11307B004F6FF1F7047C046F8B5534A44465F46E7
S11307C056464D46F0B4D068904607F0A5FF03B2F4
S11307D0002B00DC96E04D4B4D4F99464D4B4E4C53
S11307E0461E9B464D4B7D1CB6B2E1783A1CAE19B1
S11307F09A466078A378207000026370C3181B02C5
S113080012785B18A1701B0245499B18E2708B4259
S113081000D175E02DDC43498B425BD04DDD42496C
S11308208B425ED041498B4211D041498B420ED05C
S1130830111C2A1EB24210D00135DAE73D498B4221
S113084005D03D498B42F3D10122304B9A707E236F
S1130850E3707E212A1EB242EED14346391CD86889
S1130860012207F0E7FE3CBC90469946A246AB46FF
S1130870F8BD32498B4241D0E0DD31498B423BD057
S113088030498B4231D030498B42D1D103234A467F
S113089051465846537102F0E1FD2C490123A02230
S11308A08B542B498B542B49A8228B5400234A4642
S11308B0D3607E23E3707E21BBE727498B4212D0AD
S11308C026498B42B4D10022104B7E215A707E23DC
S11308D0E370AEE700220D4B7E215A717E23E37054
S11308E0A7E70122F7E70122EEE70022074B7E216A
S11308F01A707E23E3709CE70122F7E70022A4E745
S11309000322E8E7024FA8E71CE3FF1F04F6FF1FDA
S113091068E4FF1FECF1FF1F64E3FF1F44E5FF1FC2
S1130920414D365120203351204D335147413651EA
S113093020473351202039512B4350522D435052DC
S1130940202B4756202D4756205453529CF0FF1F0E
S1130950A0E4FF1F40F1FF1F202B4244202D4244FE
S1130960F0B50378002B00D174E01A1C613AD2B2BE
S1130970192A01D8203BDBB2303BDAB22A2A5DD8EF
S11309805A00541C4E4B0125995C4E4A1C5D117053
S11309904D4A11782940214311704278002A00D130
S11309A087E0111C6139C9B2192901D8203AD2B2A1
S11309B0303AD1B22A2944D85200541C995C434A93
S11309C001251170424A1C5D1178294021431170A0
S11309D08278002A00D16EE0111C6139C9B219294C
S11309E001D8203AD2B2303AD1B22A292CD85200B6
S11309F0541C995C374A01251170374A1C5D1178E3
S1130A00294021431170C278002A56D0111C613943
S1130A10C9B2192901D8203AD2B2303AD1B22A291E
S1130A2015D85200501C995C2C4A012411702C4A90
S1130A301B5C117821400B431370F0BD1D241C2254
S1130A40A0E71D241C22B9E71D241C22D1E71D2088
S1130A501C22E8E70022234B51005D5C2248591810
S1130A6000242C544D7801212D182F78561C0F404A
S1130A702F70042EE1D076009F5D9E1976783C5449
S1130A8036183778951C0F403770042DD5D06D007B
S1130A905E5D5B195B7834541B1818780840187035
S1130AA0002ACAD10D4B1A700D4B1A7811401970D7
S1130AB0C3E70122CFE70222CDE70322CBE7C046FA
S1130AC03CC5000045300540313005402730054025
S1130AD02830054055300540463005402A30054051
S1130AE02B30054030C5000020300540FE21F8B50C
S1130AF08905041CFFF766FD002801D04748F8BDAE
S1130B00201C4749FFF74AFD00286AD1211C201CFC
S1130B1009F0C0FF011CFE2080050AF0A9F808F0C6
S1130B2087F8011C201C09F015FE0021041CFFF7A6
S1130B302BFD002600284DD1FE21201C8905FFF73E
S1130B4037FD00284BD0FE20211C800509F002FE51
S1130B500125041C201C3349FFF72AFD002842D03C
S1130B60201C31490AF084F82F49071C201C09F085
S1130B7091FFFE21890509F089FC011C381C09F04C
S1130B80E9FD041C211C09F085FF2849071C09F014
S1130B9081FF274909F07AFC011C201C09F07AFF27
S1130BA02449041C381C09F071FC011C201C09F0A8
S1130BB0D1FD214909F06AFC011C002D03D017481E
S1130BC00AF056F8011C002E02D080231B06C91817
S1130BD0081C94E780231B06E4180126ACE70025D3
S1130BE0B8E716488BE7211C201C09F053FF0F4976
S1130BF0071C09F04FFF0E4909F048FC011C201C9A
S1130C0009F048FF0B49041C381C09F03FFC011C87
S1130C10201C09F09FFD011CCFE7C0460000B44230
S1130C20000080BFA330893E3ACD133F0EB2C841C5
S1130C30EE49C142DCE7D73F0000F0410000B4C2F6
S1130C40FE21F8B58905041CFFF7BCFC002801D07F
S1130C500020F8BD201C9149FFF7A0FC002873D1A7
S1130C60201C0021FFF78AFC00286BD1201C0021E6
S1130C70FFF79EFC002869D0211C201C09F00AFF04
S1130C80011CFE20800509F0F3FF07F0D1FF211CB1
S1130C9009F060FD0021041CFFF776FC0026002803
S1130CA000D0F4E0FE21201C8905FFF781FC002818
S1130CB000D1F1E0FE20211C800509F04BFD012547
S1130CC0041C201C7649FFF773FC002800D1A3E024
S1130CD0201C744909F0CCFF7249071C201C09F040
S1130CE0D9FEFE21890509F0D1FB011C381C09F04D
S1130CF031FD041C211C09F0CDFE6B49071C09F0D1
S1130D00C9FE6A4909F0C2FB011C201C09F0C2FE9D
S1130D106749041C381C09F0B9FB011C201C09F0AC
S1130D2019FD644909F0B2FB011C002D03D062488F
S1130D3009F09EFF011C002E02D080231B06C91857
S1130D40081C86E75C4884E75C4882E7211C201C79
S1130D5009F0A0FE011CFE20800509F089FF07F0C0
S1130D6067FF211C09F0F6FC0021041CFFF70CFCB2
S1130D70002600286AD1FE21201C8905FFF718FCF3
S1130D80002868D0FE20211C800509F0E3FC012521
S1130D90041C201C4249FFF70BFC00285DD0201CDA
S1130DA0404909F065FF3F49071C201C09F072FE09
S1130DB0FE21890509F06AFB011C381C09F0CAFCF4
S1130DC0041C211C09F066FE3749071C09F062FE69
S1130DD0364909F05BFB011C201C09F05BFE344919
S1130DE0041C381C09F052FB011C201C09F0B2FC45
S1130DF0304909F04BFB011C002D03D02E4809F0AB
S1130E0037FF011C002E02D080231B06C918081CC2
S1130E102A4909F03BFB1CE7211C201C09F03AFE7F
S1130E202149071C09F036FE204909F02FFB011C5B
S1130E30201C09F02FFE1E49041C381C09F026FB57
S1130E40011C201C09F086FC011C6EE780231B0694
S1130E50E41801268FE700259BE7211C201C09F0DC
S1130E6019FE1149071C09F015FE104909F00EFB83
S1130E70011C201C09F00EFE0D49041C381C09F04D
S1130E8005FB011C201C09F065FC011CB4E7802350
S1130E901B06E418012605E7002512E7000080BFC1
S1130EA0A330893E3ACD133F0EB2C841EE49C14248
S1130EB0DCE7D73F0000F0410000B44200003443B7
S1130EC0F8B50021041CFFF75FFB0025002868D15A
S1130ED0FE21201C8905FFF76BFB002800D16CE084
S1130EE0FE20211C800509F035FC0126041C201C71
S1130EF03349FFF75DFB002839D0201C314909F044
S1130F00B7FE3049071C201C09F0C4FDFE218905E9
S1130F1009F0BCFA011C381C09F01CFC041C211C3F
S1130F2009F0B8FD2849071C09F0B4FD274909F068
S1130F30ADFA011C201C09F0ADFD2549041C381C28
S1130F4009F0A4FA011C201C09F004FC214909F051
S1130F509DFA011C002E03D01F4809F089FE011CD4
S1130F60002D02D080231B06C918081CF8BD211CC3
S1130F70201C09F08FFD1449071C09F08BFD13494F
S1130F8009F084FA011C201C09F084FD1049041C9A
S1130F90381C09F07BFA011C201C09F0DBFB011C46
S1130FA0D8E780231B06E418FE21201C89050125AF
S1130FB0FFF7FEFA002800D092E7002697E7C04624
S1130FC0A330893E3ACD133F0EB2C841EE49C14227
S1130FD0DCE7D73F0000F0410000B442F8B5051C3F
S1130FE00C1C081C0021FFF7C9FA002808D0281C93
S1130FF00021FFF7DDFA002800D1B4E0CC48F8BDA9
S1131000201C0021FFF7D4FA002847D0211C281CFB
S113101009F0A0FB0021041CFFF7B6FA0026002803
S113102000D0D9E0FE21201C8905FFF7C1FA002871
S113103000D1CFE0FE20211C800509F08BFB0125A7
S1131040041C201CBB49FFF7B3FA002800D093E02E
S1131050211C201C09F01EFDB749071C09F01AFDCC
S1131060B64909F013FA011C201C09F013FDB44918
S1131070041C381C09F00AFA011C201C09F06AFB44
S1131080011C002D03D0AA4809F0F2FD011C002E1A
S113109002D080231B06C918081CB0E7201C0021BD
S11310A0FFF772FA002800D0B5E0211C281C09F0D3
S11310B051FB0021041CFFF767FA0026002800D02A
S11310C010E1FE21201C8905FFF772FA002800D1E7
S11310D006E1FE20211C800509F03CFB0125041CCF
S11310E0201C9449FFF764FA00287AD0201C954903
S11310F009F0BEFD9349071C201C09F0CBFCFE211E
S1131100890509F0C3F9011C381C09F023FB041CF0
S1131110211C09F0BFFC8849071C09F0BBFC874966
S113112009F0B4F9011C201C09F0B4FC8449041C26
S1131130381C09F0ABF9011C201C09F00BFB824997
S113114009F0A4F9011C002D03D0794809F090FDA1
S1131150011C002E02D080231B06C918081C7B49E1
S113116009F086FD4BE7281C0021FFF70DFA002843
S113117000D0B3E0002042E7201C724909F078FD5A
S11311807049071C201C09F085FCFE21890509F023
S11311907DF9011C381C09F0DDFA041C211C09F03E
S11311A079FC6549071C09F075FC644909F06EF97E
S11311B0011C201C09F06EFC6149041C381C09F058
S11311C065F9011C201C09F0C5FA5F4909F05EF9B4
S11311D0011C56E7002534E780231B06E41801268A
S11311E020E7211C201C09F055FC5349071C09F079
S11311F051FC524909F04AF9011C201C09F04AFC2F
S11312004F49041C381C09F041F9011C201C09F049
S1131210A1FA011C97E7281C0021FFF7C9F900284F
S113122000D142E7211C281C09F094FA0021041C77
S1131230FFF7AAF90026002873D1FE21201C890596
S1131240FFF7B6F9002871D0FE20211C800509F0B3
S113125081FA0125041C201C3649FFF7A9F900284E
S113126045D0201C374909F003FD3649071C201CD2
S113127009F010FCFE21890509F008F9011C381C4D
S113128009F068FA041C211C09F004FC2A49071C13
S113129009F000FC294909F0F9F8011C201C09F0A7
S11312A0F9FB2749041C381C09F0F0F8011C201C28
S11312B009F050FA244909F0E9F8011C002D03D083
S11312C01B4809F0D5FC011C002E02D080231B060C
S11312D0C918081C1D4909F0D9F890E61C488EE687
S11312E00025FDE680231B06E4180126E9E6211CFF
S11312F0201C09F0CFFB1049071C09F0CBFB0F4958
S113130009F0C4F8011C201C09F0C4FB0C49041C9E
S1131310381C09F0BBF8011C201C09F01BFA011C45
S1131320CCE780231B06E418012686E7002592E714
S11313300000B442A330893E0EB2C841EE49C14216
S1131340DCE7D73F3ACD133F0000F04100003443BF
S11313500000B4C2F0B5474680B4002184B00E2228
S1131360041C06F099FF304F10233B702F4D0023CF
S11313707B70EB7801229343EB700222201C391C12
S1131380012306F0A7FE012202AE904603E0EB78AB
S113139042461A4208D1201C311C06F0B5FF33889E
S11313A0002BF4D000203AE0201C694606F0D6FF5A
S11313B06A461378012BF7D111223A7090227A7081
S11313C0EA78201C9A43EA70391C0222012306F0B1
S11313D081FE0122EB781A42FCD0201C694606F0FB
S11313E0BDFF6A461378012BF7D110223A70092207
S11313F07A70EA78201C9A43EA70391C022201238D
S113140006F068FE0122EB781A42FCD0201C6946E3
S113141006F0A4FF6A461378012BF7D1012040B2ED
S113142004B004BC9046F0BD54E3FF1F04F6FF1F54
S1131430F0B5474680B4002184B01D22041C06F098
S11314402BFF304F2A233B702F4D00237B70EB780A
S113145001229343EB700222201C391C012306F065
S113146039FE012202AE904603E0EB7842461A426E
S113147008D1201C311C06F047FF3388002BF4D020
S1131480002039E0201C694606F068FF6A4613789C
S1131490012BF7D10E227B703A70EA78201C9A4314
S11314A0EA70391C0222012306F014FE0122EB78B3
S11314B01A42FCD0201C694606F050FF6A46137895
S11314C0012BF7D12A223A7021227A70EA78201C63
S11314D09A43EA70391C0222012306F0FBFD012223
S11314E0EB781A42FCD0201C694606F037FF6A46A6
S11314F01378012BF7D1012040B204B004BC90460C
S1131500F0BDC04654E3FF1F04F6FF1FF0B50E22E2
S113151083B00F1C0021051C06F0BEFE284E0123DB
S1131520284C3370E278281C9A43E270311C012263
S1131530002306F0CFFD0122E3781A42FCD0E378C1
S113154002229343E3700622281C311C012306F077
S113155031FE0222E3781A42FCD06C460734281C80
S1131560211C06F0FBFE2378012BF8D13178737827
S1131570090219433980B278F37812021A437A8047
S1131580337970791B0203430F4809B2BB8081424F
S113159012D00D4912B28A420BD00B4A1BB29342AD
S11315A001D10A4BBB800A4B7B620A4BBB6203B07E
S11315B0F0BD064A7A80F0E704493980E9E7C0467D
S11315C054E3FF1F04F6FF1F0080FFFF0180FFFFAD
S11315D0CDCCCC3D00002041F0B51D2283B00F1CC2
S11315E00021051C06F058FE274E0123274C3370BA
S11315F0E278281C9A43E270311C0122002306F091
S113160069FD0122E3781A42FCD0E3780222934375
S1131610E3700622281C311C012306F0CBFD0222B4
S1131620E3781A42FCD06C460734281C211C06F0CF
S113163095FE2378012BF8D1317873780902194388
S11316403980B278F37812021A437A803379707948
S11316501B0203430E4809B2BB80814211D00C49DE
S113166012B28A420AD00A4A1BB2934201D1094BF0
S1131670BB80E4239B057B6103B0F0BD054A7A80FF
S1131680F1E704493980EAE754E3FF1F04F6FF1F3A
S11316900080FFFF0180FFFFF0B55F464D465646D0
S11316A04446F0B4E64F7E23E64D3B7001237B7045
S11316B02B7A91B002907E2B00D133E2BB700322CF
S11316C07D2B00D11DE3297D01332B727E2900D1AE
S11316D033E27D2900D12AE3531CB954697D7E2964
S11316E000D134E27D2900D11BE35A1CF954A97DB1
S11316F07E2900D135E27D2900D10CE3531CB95475
S1131700EA7D7E2A00D136E27D2A00D1FDE2591C11
S1131710FA54CD4B1A787E2A00D137E27D2A01D1C2
S113172000F09AFF481C7A5459787E2900D137E298
S11317307D2901D100F09EFF421C395498787E28FF
S113174000D137E27D2801D100F08DFF511CB8543F
S1131750D8787E2800D137E27D2801D101F005F840
S11317604A1C785418797E2800D137E27D2801D1AB
S113177000F0F4FF511CB8545B797E2B00D137E2A2
S11317807D2B01D100F0E3FF4A1C7B54AF4B9879C9
S11317907E2800D137E27D2801D100F0D1FF511C11
S11317A0B854D8797E2800D137E27D2801D100F0E1
S11317B0C0FF4A1C7854187A7E2800D137E27D286D
S11317C001D100F0AFFF511CB854587A7E2800D1E3
S11317D037E27D2801D100F09EFF4A1C7854987AA4
S11317E07E2800D137E27D2801D100F08DFF511C05
S11317F0B854DB7A7E2B00D137E27D2B01D100F087
S1131800F0FF4A1C7B5400236846002103827E2992
S113181000D137E27D2901D100F0DBFF531CBA1857
S113182011706A46517C7E2900D136E27D2901D1AE
S113183000F0C8FF5A1CF9546B46197C7E2900D16C
S113184036E27D2901D100F0B6FF531CB9546E462F
S1131850717C7E2900D136E27D2901D100F0A4FFFC
S11318605A1CF9546846017C7E2900D136E27D2950
S113187001D100F092FF531CB95469464A7C7E2A78
S113188000D136E27D2A01D100F07FFF581C80464A
S1131890FA54002369460EACA380638023800B8531
S11318A00B840B830B866B79012B01D100F06CFE4A
S11318B0002B01D100F000FE032B00D144E21021E3
S11318C063480091002600220021B14692468346D7
S11318D001915B466A461382DBB27E2B00D1A8E2FB
S11318E042467D2B01D100F047FF414601327B5433
S11318F06B46597C7E2900D1AAE27D2901D100F0F2
S1131900D5FE531CB95450466A46C1B210827E2992
S113191000D1AAE27D2901D100F0C1FE5A1CF9547C
S11319206B46597C7E2900D1AAE27D2901D100F0C1
S1131930AFFE531CB95448466A46C1B210827E2990
S113194000D1AAE27D2901D100F09BFE5A1CF95472
S11319506B46597C7E2900D1AAE27D2901D100F091
S1131960BAFE531CB9546A46F0B216827E2800D1DE
S1131970AAE27D2801D100F0A7FE5A1CF8546E4655
S1131980737C7E2B00D1AAE27D2B01D100F095FE61
S1131990511CBB5400987A1810707B1C08205854B2
S11319A07E2090706A78CB1C002A01D000F092FC53
S11319B02A78002A00D0BBE3AA78002A00D0DAE211
S11319C07E22FA5406217A1CD154297A981C7E2945
S11319D000D1B6E27D2900D1C7E2DA1C39541D4C8E
S11319E01D4B01312972E15C7E2900D1A2E27D29DF
S11319F000D1B4E2531CB954184AA25C7E2A00D127
S1131A0090E27D2A00D1A3E2591C8946FA54144A73
S1131A101449966B9046301CFEF7CAFD002800D08E
S1131A2064E2301C104909F035F809F08BFA6E466F
S1131A3080B23082C0B27E2800D15EE216E0C04699
S1131A4068E3FF1F04F6FF1F88E4FF1F1CF6FF1F57
S1131A503075000044E5FF1F560B0000570B0000D3
S1131A60ECF1FF1F33CB4C45000020417D2801D110
S1131A7000F040FE4B4649460133785469464A7C9F
S1131A807E2A00D146E27D2A01D100F02BFE581CAB
S1131A908146FA54EE88B1B20B1C0A3B9BB218B2D1
S1131AA08B460C219A46FEF7BDFC0C2180B24942BC
S1131AB04143514489B233B28A46092B0EDD0BB23D
S1131AC05A009446634401B2DB005B18B133FF3320
S1131AD09B00E358013301D101F036F869460E82C8
S1131AE0F6B27E2E01D100F0DAFC4B467D2E01D1F8
S1131AF001F00EF84A460133BE546E46727C7E2ACB
S1131B0001D100F054FC7D2A01D100F0FAFF5E1CE3
S1131B10FA54EB88092B01D900F054FC874A9B0046
S1131B20D3589F467D22297DBA7001335E22FA7014
S1131B302B7204227E2900D0CBE57D23791C5E2004
S1131B40BB548854697D931C7E2900D0CAE57D224C
S1131B50791C5E20FA54C854A97D9A1C7E2900D0B1
S1131B60C9E57D23791C5E20BB548854931CEA7D0F
S1131B707E2A00D0C8E57D22FA545E207A1CD05417
S1131B80991C6F4B1A787E2A00D0C7E57D227A54BF
S1131B905E247A1C5454881C59787E2900D0C7E5E9
S1131BA07D22791C5E243A540C54821C98787E2839
S1131BB000D0C7E57D21781C5E24B9548454D878BC
S1131BC0911C7E2800D0C7E57D22781C5E247A54BF
S1131BD0445418798A1C7E2800D0C7E57D21781CDE
S1131BE05E24B95484545B79911C7E2B00D0C7E5E4
S1131BF07D237B545E207B1C5854524B8A1C98795D
S1131C007E2800D0C7E57D21781C5E24B954845415
S1131C10D879911C7E2800D0C7E57D22781C5E24EB
S1131C207A544454187A8A1C7E2800D0C7E57D2152
S1131C30781C5E24B9548454587A911C7E2800D0B0
S1131C40C7E57D22781C5E247A544454987A8A1C11
S1131C507E2800D0C7E57D21781C5E24B9548454C5
S1131C60DB7A911C7E2B00D0C7E57D237B545E205C
S1131C707B1C58548A1C00236846002103827E2959
S1131C8000D0C7E57D23791C5E20BB548854931C87
S1131C906A46517C7E2900D0C8E57D22791C5E20ED
S1131CA0FA54C8549A1C6B46197C7E2900D0C8E5A6
S1131CB07D23791C5E20BB546E468854717C931C32
S1131CC07E2900D0C8E57D22791C5E20FA54C854D0
S1131CD06846017C9A1C7E2900D0C8E57D23791CC6
S1131CE05E20BB5488546946931C4A7C7E2A00D0EB
S1131CF0C8E57D22FA549A1C90465E217A1CD15480
S1131D00C7E55D22FA700422DDE4FA545D207A1CF2
S1131D10991CD054FDE4B9545D20791C931C88545B
S1131D20EEE4F9545D20791C9A1CC854DFE4B954DC
S1131D305D20791C931C8854D0E4C046A0C50000E3
S1131D4088E4FF1F1CF6FF1FE5498A460B1C8A6BBB
S1131D50CE6B086C496C81460391586DE1499346FA
S1131D6008F098FE09F0EEF85246DE492080906DA6
S1131D7008F090FE09F0E6F85346DA496080D86D21
S1131D8008F088FE09F0DEF85146A0800868D649BC
S1131D9008F080FE09F0D6F853466A461083D2490B
S1131DA0586808F077FE09F0CDF852466946088471
S1131DB0D068CD4908F06EFE09F0C4F86B4618856A
S1131DC051469C23C858C84908F064FE09F0BAF883
S1131DD0524680B201901421106EFEF723FB6B462D
S1131DE01886C249584608F055FE09F0ABF880B28F
S1131DF0BE498346301C08F04DFE09F0A3F880B2BA
S1131E00BA498246484608F045FE09F09BF880B27C
S1131E10B6498146039808F03DFE09F093F85B4605
S1131E2086B26A46122000901382DBB27E2B00D069
S1131E3056E57D2341467B547B1C181C5E2140449F
S1131E4001706B46597C424602327E2900D054E52B
S1131E507D23781C5E21BB5481545046931CC1B22F
S1131E606A4610827E2900D054E57D225E21781CCA
S1131E70FA54C1549A1C6B46597C7E2900D054E50F
S1131E807D23781C5E21BB5481544846931CC1B207
S1131E906A4610827E2900D054E57D225E21781C9A
S1131EA0FA54C1549A1C6B46597C7E2900D054E5DF
S1131EB07D23781C5E21BB548154931CF0B26A4686
S1131EC016827E2800D054E57D22791C5E20FA54C7
S1131ED06E46C8549A1C737C7E2B00D054E57D2337
S1131EE0BB545E207B1C911C985453E580486E467D
S1131EF03082C0B27E2800D0B8E57D2348467A1CE3
S1131F005E213B54115469464A7C4B4602337E2A77
S1131F1000D0B8E57D22FA549A1C91465E217A1CC1
S1131F20D154B7E57D22FA549E1C7A1C5E21B14639
S1131F30D1546CE57D23791C5E20BB54931C8854DA
S1131F405AE57D223A545E24F81C1A1DC45446E511
S1131F50FA54981C7A1C5D218146D15457E5B95432
S1131F605D20791C931C885446E539545D24F81C83
S1131F701A1DC45433E57E22FA5404217A1CD15428
S1131F80297A981C7E2973D07D2900D1B8E0DA1C07
S1131F90395401312972297D7E2974D07D2900D1DB
S1131FA0A8E0531CB954697D7E2975D07D2900D1E0
S1131FB0B2E05A1CF954A97D7E2976D07D2900D13E
S1131FC0A4E0531CB954EA7D7E2A77D07D2A00D13F
S1131FD0A8E0591CFA546E46337E7E2B78D07D2BB4
S1131FE001D100F080FD4A1C7B546B4619331B78E9
S1131FF07E2B01D100F0DBFD7D2B01D100F033FEFF
S1132000511CBB5408A803787E2B01D100F0C7FDF6
S11320107D2B01D100F020FE4A1C7B546B462133FA
S11320201B787E2B01D100F0B2FD7D2B01D100F095
S113203028FE511CBB540AAA13787E2B01D100F050
S11320409EFD7D2B01D100F015FE4A1C7B546B468E
S113205029331B787E2B01D100F0B1FD7D2B01D1FA
S113206000F016FE511CBB547E224B1C7A54A7E48C
S11320707D223A545E24F81CC45401312972297D0E
S11320801A1D7E298AD17D23791C5E20BB54885475
S1132090697D931C7E2989D17D22791C5E20FA54A6
S11320A0C854A97D9A1C7E2988D17D23791C5E2081
S11320B0BB548854931CEA7D7E2A87D17D22FA542E
S11320C05E207A1CD0546E46991C337E7E2B86D1BA
S11320D07D237B545E207B1C8A1C585485E7C046B4
S11320E040F1FF1F0000A041000020410060EA46CB
S11320F0FF7F0000B9545D20791C931C885452E77B
S113210039545D24F81C1A1DC45442E7B9545D20A7
S1132110791C931C885456E7F9545D20791C9A1C49
S1132120C85448E7FA545D207A1C991CD05452E7ED
S11321307E22FA5403217A1CD154297A981C7E29D0
S113214074D07D2900D1ADE0DA1C395401312972F3
S1132150297D7E2975D07D2900D19DE0531CB95479
S1132160697D7E2976D07D2900D1A7E05A1CF954D7
S1132170A97D7E2977D07D2900D199E0531CB954DB
S1132180EA7D7E2A78D07D2A00D19DE0591CFA543C
S113219023787E2B79D07D2B01D100F09DFC4A1C45
S11321A07B546B4639331B787E2B01D100F037FD0D
S11321B07D2B01D100F03BFD511CBB546B463A33DF
S11321C01B787E2B01D100F022FD7D2B01D100F084
S11321D03CFD4A1C7B546B463B331B787E2B01D160
S11321E000F00DFD7D2B01D100F028FD511CBB54E6
S11321F00FAB1B787E2B01D100F0F9FC7D2B01D1B4
S113220000F05BFD4A1C7B546B463D331B787E2BF0
S113221001D100F0E4FC7D2B01D100F047FD511CFD
S1132220BB547E224B1C7A54FFF7C6FB7D223A54E2
S11322305E26F81CC65401312972297D1A1D7E2997
S113224089D17D23791C5E20BB548854697D931CFD
S11322507E2988D17D22791C5E20FA54C854A97D38
S11322609A1C7E2987D17D23791C5E20BB54885417
S1132270931CEA7D7E2A86D17D22FA545E207A1C44
S1132280D054991C23787E2B85D17D237B545E20EA
S11322907B1C8A1C585484E7B9545D20791C931C18
S11322A088545DE739545D26F81C1A1DC6544DE761
S11322B0B9545D20791C931C885461E7F9545D205E
S11322C0791C9A1CC85453E7FA545D207A1C991C53
S11322D0D0545DE7F85402223B1D5A542B7A481D12
S11322E07E2B33D07D2B56D08A1D3B5401332B7269
S11322F0D3235B006E46D9B233827E293ED07D293A
S113230043D0531CB9546846427C7E2A25D07D2A8A
S113231047D0591CFA540CAA13787E2B27D07D2B56
S113232000D1E7E34A1C7B546B4631331B787E2B88
S113233001D100F04CFC7D2B01D100F0B0FC511C0C
S1132340BB547E224B1C7A54FFF732FB7D223A5455
S1132350BE1D5E20CA1D7054C8E77D22FA545E205B
S11323607A1CD0540CAA991C13787E2BD7D17D23C8
S11323707B545E207B1C8A1C5854D5E77D23791C32
S11323805E20BB54931C8854BDE7B9545D20791C6E
S1132390931C8854B7E73B54BE1D5D20CA1D70547E
S11323A0A4E7FA545D207A1C991CD054B3E77D222B
S11323B0FA54791C5E22CA549E1CEB88092B01D85E
S11323C0FFF7ACFB534619B24A000092521800B210
S11323D0D200121852001219137891467E2B01D1A3
S11323E000F0AAFC7D2B01D100F0C5FD721C9046C3
S11323F0BB554E4672787E2A01D100F090FC7D2AAE
S113240001D100F0ACFD012399464646C144BA55BA
S1132410009B5A18D20012182132FF3252001219AE
S1132420904612787E2A01D100F06BFC7D2A01D1FE
S113243000F08CFD0126B2464B46CA44FA54464687
S113244072787E2A01D100F050FC7D2A01D100F07F
S113245073FD0126B4465346D444FA54009E7318BF
S1132460DB001B18902080001B185B00E418237805
S11324707E2B01D100F02FFC7D2B01D100F053FD08
S1132480614662460131BB5463787E2B00D008E27A
S11324907D237B545E207B1C8A1C585406E27E1CE0
S11324A0B4467D234A466146BB545E264B464944A6
S11324B002330E70FFF721FBCD498A460B1C8A6B51
S11324C0CE6B086C496C81460191586DC94993469D
S11324D008F0E0FA08F036FD5246C6492080906DB7
S11324E008F0D8FA08F02EFD5346C2496080D86D32
S11324F008F0D0FA08F026FD5146A0800868BE49CD
S113250008F0C8FA08F01EFD53466A461083BA491B
S1132510586808F0BFFA08F015FD52466946088469
S1132520D068B54908F0B6FA08F00CFD6B46514680
S11325301885086E1421FDF775FF6A461086AF49A9
S1132540584608F0A7FA08F0FDFC80B2AB49834670
S1132550301C08F09FFA08F0F5FC80B2A7498246C7
S1132560484608F097FA08F0EDFC80B2A34981468A
S1132570019808F08FFA08F0E5FC112386B20020D8
S113258000930190FFF7A5F99D498A460B1C8A6BBD
S1132590CE6B086C496C81460191586D9549934600
S11325A008F078FA08F0CEFC524692492080906DEB
S11325B008F070FA08F0C6FC53468E496080D86D66
S11325C008F068FA08F0BEFC5146A08008688A4901
S11325D008F060FA08F0B6FC53466A461083864950
S11325E0586808F057FA08F0ADFC5246694608846A
S11325F0D068814908F04EFA08F0A4FC6B465146B5
S11326001885086E1421FDF70DFF6A4610867B4974
S1132610584608F03FFA08F095FC80B277498346A3
S1132620301C08F037FA08F08DFC80B273498246FA
S1132630484608F02FFA08F085FC80B26F498146BD
S1132640019808F027FA08F07DFC162386B20020D2
S113265000930190FFF73DF97A545D247A1C881C9D
S11326605454FFF761F8B8545D24781C911C8454C9
S1132670FFF76EF839545D24791C821C0C54FFF763
S11326805DF8F954781C5D219A1CC154FFF760F978
S1132690B954781C5D21931C8154FFF74CF9F9540B
S11326A0781C5D219A1CC154FFF73AF9B954781C7F
S11326B05D21931C8154FFF726F9BB545D207B1CDC
S11326C0911C9854FFF766F9F854791C5D209A1C04
S11326D0C854FFF754F9B954781C5D21931C8154F4
S11326E0FFF741F9FA549E1C7A1C5D21B146D1547E
S11326F0FFF7D0F94A46B8544B467A1C5D214E4642
S113270002339155FFF7BAF9B8545D24781C911C33
S11327108454FFF76EF878545D24781C8A1C445462
S1132720FFF75DF8B8545D24781C911C8454FFF7BE
S11327304CF878545D24781C8A1C4454FFF73BF809
S1132740B8545D24781C911C8454FFF72AF87B54F8
S11327505D207B1C8A1C5854FFF718F8B8545D247C
S1132760781C911C8454FFF707F878545D24781C76
S11327708A1C4454FEF7F6FFBB547B1C181C5D21D5
S1132780404402320170FFF7B3F8FA549E1C7A1CDD
S11327905D21B046D154FFF77CF8B9545D20791C13
S11327A0931C8854FFF769F8F9545D20791C9A1C2E
S11327B0C854FFF757F8B9545D20791C931C88540A
S11327C0FFF745F8F9545D20791C9A1CC854FFF7AB
S11327D033F8BB1819705D20791C931C8854FFF7DB
S11327E020F87B545D207B1C8A1C5854FFF70BF89F
S11327F09CF0FF1F0000A041000020410060EA4659
S1132800A0E4FF1F41460869CD4908F043F908F0E8
S113281099FB6A46C3B210827E2B00D154E27D2B11
S113282000D125E3721CBB556E46737C7E2B00D110
S113283017E37D2B00D127E3541CBB544146486960
S1132840BF4908F027F908F07DFB6A46C3B210823D
S11328507E2B00D1FEE27D2B00D10FE3621C3B55A1
S11328606E46737C7E2B00D1EDE27D2B00D123E3F9
S1132870541CBB544146086AB14908F00BF908F0EE
S113288061FB6A46C3B210827E2B00D14AE17D2BE4
S113289000D14EE1611C3B556E46737C7E2B00D10A
S11328A0F6E57D2B00D1D7E04A1C7B54EB882A2126
S11328B001339BB218B2FF31884200DD0023EB8064
S11328C07E23BB54013292B20298391C05F0E4FE17
S11328D011B03CBC90469946A246AB46F0BD414679
S11328E0C868974908F0D6F808F02CFB6A46C3B2CA
S11328F010827E2B00D19FE27D2B00D1D6E2721C88
S1132900BB556E46737C7E2B00D18EE27D2B00D1AD
S1132910C6E2541CBB544146C869894908F0BAF858
S113292008F010FB6A46C3B210827E2B00D175E218
S11329307D2B00D1AEE2621C3B556E46737C7E2B30
S113294000D164E27D2B00D1E7E2541CBB54414624
S1132950C86A91E7414608687A4908F09BF808F08C
S1132960F1FA6A46C3B210827E2B00D148E27D2B75
S113297000D1CCE2721CBB556E46737C7E2B00D119
S113298037E27D2B00D1BCE2541CBB54414648685D
S11329906C4908F07FF808F0D5FA6A46C3B2108291
S11329A07E2B00D11EE27D2B00D1A4E2621C3B559C
S11329B06E46737C7E2B00D10DE27D2B00D194E218
S11329C0541CBB54414688685E4956E70023684658
S11329D003827E2B00D1F7E17D2B00D17EE2721CB5
S11329E0BE19337069464B7C7E2B00D1E5E17D2B0B
S11329F000D16DE2541CBB544246106B514908F09F
S1132A0049F808F09FFA6B461882C3B27E2B00D1B6
S1132A10CCE17D2B00D155E2611C3B556E46737CA5
S1132A207E2B00D1BBE17D2B00D1D1E24A1C7B542B
S1132A30019E6846F3B206827E2B00D1A8E17D2B6D
S1132A4000D1BFE2511CBB546846437C7E2B00D1AD
S1132A501EE57D2B00D027E77B545D207B1C8A1C60
S1132A60585423E70023684603827E2B00D188E173
S1132A707D2B00D19FE2711CBE1933706A46537CD2
S1132A807E2B00D176E17D2B00D18EE24A1C7B5453
S1132A906E46337C7E2B00D165E17D2B00D17EE236
S1132AA0511CBB546846437C7E2B00D154E17D2BE2
S1132AB000D16EE24A1C7B5469460B7C7E2B00D10C
S1132AC043E17D2B00D15EE2511CBB546A46537C2A
S1132AD07E2B00D0E5E6DBE47B545D207B1C8A1C66
S1132AE05854FFF75EFB7B545D207B1C8A1C5854B2
S1132AF0FFF77BFA7B545D207B1C8A1C5854FFF73C
S1132B0013FCFA54791C5D229E1CCA54FFF701F889
S1132B10FE547E1CB44661465D26494402330E7061
S1132B20FEF7EBFF7D233B555E227B1CA11C1A554F
S1132B30B2E63B555D227B1CA11C1A55ACE6C0468F
S1132B4000007A44000020415E46734269460B82CD
S1132B50DBB27E2B00D149E27D2B00D151E2494604
S1132B604A460131BB546E46737C7E2B00D135E25C
S1132B707D2B00D14FE24E1C7B54FEF7CAFF7D2310
S1132B807B545E207B1C8A1C5854FFF760FA7D231B
S1132B90BB545E207B1C911C9854FFF74CFA7D2398
S1132BA07B545E207B1C8A1C5854FFF737FA7D2324
S1132BB0BB545E207B1C911C9854FFF723FA7D23A1
S1132BC0BB545E207B1C911C9854FFF74DFA7D2367
S1132BD0BB545E207B1C911C9854FFF7B2FB7D23F1
S1132BE0BB545E207B1C911C9854FFF71AFB7D2379
S1132BF07B545E207B1C8A1C5854FFF705FB7D2305
S1132C00BB545E207B1C911C9854FFF7F1FA7D2382
S1132C107B545E207B1C8A1C5854FFF7DCFA7D230E
S1132C20BB545E207B1C911C9854FFF7C7FABB541D
S1132C305D207B1C911C9854FFF7C0FABB545D20A7
S1132C407B1C911C9854FFF7D3FA7B545D207B1CAA
S1132C508A1C5854FFF7BFFA7B545D207B1C8A1CE6
S1132C605854FFF7DBF9BB545D207B1C911C98542E
S1132C70FFF7C8F97B545D207B1C8A1C5854FFF76E
S1132C80E6F9BB545D207B1C911C9854FFF7D3F9E3
S1132C90BB545D207B1C911C9854FFF7E5F9BB5491
S1132CA05D207B1C911C9854FFF74BFBBB545D20AB
S1132CB07B1C911C9854FFF7B4FA7B545D207B1C59
S1132CC08A1C5854FFF7A0FA7D23BB555E217B1C58
S1132CD0B21C9955A8E57D2360463B5461467B1C94
S1132CE05E2202311A54FFF7CFFB7D22534602269F
S1132CF0FA54B4467A1C5E235646D4449355FFF7DF
S1132D00ADFB7D224E46BA55022292467B1CCA4434
S1132D109B465E265A464A441670FFF790FB7D2276
S1132D204346FA547A1C0226131CB14643445E26D9
S1132D30C1441E70FFF76CFB7D22B31CBA55984644
S1132D407A1C5E239355FFF754FB7D23BB545E200E
S1132D507B1C911C9854B9E67D237B545E207B1C1C
S1132D608A1C5854A8E67D23BB545E207B1C911C0E
S1132D70985497E67D237B545E207B1C8A1C585410
S1132D8086E67D23BB555E227B1CB11C9A5575E6F5
S1132D907D23BB545E207B1C911C985454E67D23F8
S1132DA07B545E207B1C8A1C585441E67D233B5592
S1132DB05E227B1CA11C1A5530E67D23BB545E2188
S1132DC07B1C941C995417E67D23BB555E217B1C08
S1132DD0B21C995506E67D23BB545E217B1C941CD2
S1132DE09954EFE57D233B555E217B1CA21C1955AC
S1132DF0DEE57D23BB545E217B1C941C9954C5E500
S1132E007D23BB555E217B1CB21C9955B4E57D2303
S1132E10BB545E217B1C941C995498E57D233B553F
S1132E205E217B1CA21C195587E57D23BB545E21C2
S1132E307B1C941C99546EE57D23BB555E217B1C41
S1132E40B21C99555DE57D23BB545E217B1C941C0B
S1132E5099540FE57D233B555E217B1CA21C19551B
S1132E60FEE47D23BB545E217B1C941C9954E5E451
S1132E70BB555D217B1CB21C9955D5E43B555D21A6
S1132E807B1CA21C1955EBE4BB545D217B1C941CD8
S1132E909954D3E43B555D217B1CA21C19554CE588
S1132EA0BB545D217B1C941C995434E5BB555D21B6
S1132EB07B1CB21C995524E5BB545D217B1C941CDE
S1132EC09954D7E43B555D227B1CA11C1A55A5E5FA
S1132ED0BB545D217B1C941C99548DE5BA19137065
S1132EE05D217B1CB21C99557CE5BB545D217B1C88
S1132EF0941C995466E53B555D217B1CA21C195515
S1132F0056E5BB545D217B1C941C99543EE5BB558E
S1132F105D217B1CB21C99552EE5BB545D217B1CA5
S1132F20941C995413E56646BB5561467B1C5D228F
S1132F3002319A55FFF7A8FA5646BA55022294462A
S1132F405D237A1CD4449355FFF788FA4E46BA554C
S1132F50022292467B1CCA449B465D26DAE646461C
S1132F60BA557B1C022291461A1C5D264244C14478
S1132F701670FFF74DFAB21CBB5590467B1C5D22C0
S1132F809A55FFF736FABB545D207B1C911C98546C
S1132F909CE57B545D207B1C8A1C58548CE5BB54F7
S1132FA05D207B1C911C98547CE57B545D207B1C2C
S1132FB08A1C58546CE5BA1913707B1C5D22B11C31
S1132FC09A555BE5BB545D207B1C911C98543BE5F2
S1132FD07B545D207B1C8A1C585429E57D237B543B
S1132FE07A1C5E238E1C5354FEF793FD7D234E46BC
S1132FF07A1CBB55131C49465E264B4402311E7095
S1133000B1E54E467A1CBB55131C49465D264B441C
S113301002311E70A7E57B547A1C5D238E1C535429
S1133020FEF777FDF0B5041CA020255683B0161CCE
S1133030002D35D1251C64350831281C002B38D0CF
S1133040012B63D0271C883703F022F8281C391C75
S113305003F0A2FF9C23211CE2582C3D543101961D
S11330609823261CE3580091381C291C143604F0BC
S11330701FF9301C291C04F02FF8211C4831281C8E
S113308004F0BAF8211C0C31231C00910431019185
S1133090221D0833301C211C03F0C0FE03B0F0BD18
S11330A0314A9823E250314A9C23E25000232354AE
S11330B0F4E7271C883702F0BBFE281C391C03F0F8
S11330C06BFF9C23211CE2582C3D01965431261C95
S11330D09823E3580091381C291C143604F0E8F8AE
S11330E0301C291C03F0F8FF211C281C483104F073
S11330F083F8211C0C31231C009104310191221D01
S11331000833301C211C03F09DFDC7E7271C8837BA
S113311002F024FF281C391C03F03EFF9C23211CD1
S1133120E2582C3D01965431261C9823E358009113
S1133130381C291C143604F0BBF8301C291C03F07D
S1133140CBFF211C281C483104F056F8211C0C31FB
S1133150231C009104310191221D0833301C211CD1
S113316003F0E6FD9AE7C0460AD7233DCCCC4C3E9B
S1133170F0B5041CA020255683B0161C002D35D1B3
S1133180251C64351831281C002B38D0012B63D042
S1133190271C883703F0A0F8281C391C03F0FCFE18
S11331A09C23211CE2582C3D543101969823261C63
S11331B0E3580091381C291C143604F079F8301CAB
S11331C0291C03F089FF211C4831281C04F014F841
S11331D0211C0C31231C009104310191221D083360
S11331E0301C211C03F01AFE03B0F0BD314A9823B1
S11331F0E250314A9C23E25000232354F4E7271C75
S1133200883702F0FDFF281C391C03F0C5FE9C23FF
S1133210211CE2582C3D01965431261C9823E35876
S11332200091381C291C143604F042F8301C291C67
S113323003F052FF211C281C483103F0DDFF211C40
S11332400C31231C009104310191221D0833301CE0
S1133250211C03F0F7FCC7E7271C883703F006F8A6
S1133260281C391C03F098FE9C23211CE2582C3D99
S113327001965431261C9823E3580091381C291CCC
S1133280143604F015F8301C291C03F025FF211C0A
S1133290281C483103F0B0FF211C0C31231C009181
S11332A004310191221D0833301C211C03F040FD20
S11332B09AE7C0460AD7233DCCCC4C3EF0B54746EE
S11332C080B482B0041C08A81D1C0023C65EA8207C
S11332D02756002F46D1002E4DD0012E00D181E07B
S11332E01831261C271C8C466437131C98366246FA
S11332F00833381C311C03F01DFB381C2437391CDF
S113330003F04AFEA423211CE258381C5431503FD8
S1133310A023E35800910195391C03F0C9FF14233D
S11333201B19181C391C984603F0D6FE211C381CA6
S1133330483103F061FF231C0C33009304330193E1
S1133340221D4046211C083B03F068FDA423211CD8
S1133350E2589C31301C2B1C04F020FA02B004BC4F
S11333609046F0BD3B4AA023E2503B4AA423E250DE
S113337000232354F2E7261C1831271C8C4664379B
S11333809836131C08336246381C311C02F0DAFFED
S1133390381C2437391C03F0FFFDA423211CE258F8
S11333A0381C5431503FA023E35800910195391C37
S11333B003F07EFF14231B19181C391C984603F0D4
S11333C08BFE211C381C483103F016FF231C0C33E0
S11333D0009304330193221D4046211C083B03F053
S11333E031FCB3E7261C1831271C8C466437983609
S11333F0131C08336246381C311C03F01FF9381CB7
S11334002437391C03F0C8FDA423211CE258381CBE
S11334105431503FA023E35800910195391C03F027
S113342047FF14231B19181C391C984603F054FE3B
S1133430211C381C483103F0DFFE231C0C3300939D
S113344004330193221D4046211C083B03F070FC09
S11334507CE7C0460AD7233D8888883DF8B5041C1C
S11334600C300F1C01F0F0FF0023A36063602360A5
S1133470224B234A2363234B90256363224BED00A5
S1133480A3630023A354214AA354214A0024BB521A
S1133490D823DB00FE180121301949426022603430
S11334A009F03CF8AC42F6D11A4AB4231B01FA5293
S11334B0194BAD225242FA52184B64225242FA522C
S11334C0174B39225242FA52164B1A225242FA52DE
S11334D0154B0022FA52154B1A22FA52144B392278
S11334E0FA52B52364221B01FA52124BAD22FA524E
S11334F0114B7622FF32FA52F8BDC0460000484212
S11335001504000000401C4600007A441404000026
S1133510560B00008BFEFFFF420B0000440B000023
S1133520460B0000480B00004A0B00004C0B000047
S11335304E0B0000520B0000540B0000F0B55F4628
S113354056464D464446F0B40F1C098889B0041C05
S1133550161C1D1C002900D1DDE008B280460221A2
S1133560785E6422414650439146FCF75BFF80B28B
S113357082460421785E4A4650434146FCF752FF96
S1133580B422120183B2A15E504602B2914200DD20
S1133590B1E1A448205E904200DDB0E1A248205E83
S11335A0904200DDB5E1A148205E904200DDAEE12D
S11335B09F48205E904200DD9BE19E48205E904241
S11335C000DDACE19C48205E904200DDAFE19B4809
S11335D0205E904200DDACE1B5200001205E904207
S11335E000DD9EE19648205E904200DDA9E1954809
S11335F0205E904200DDA2E10B221BB2994200DD65
S11336007FE18849615E994200DD76E18649615E29
S1133610994200DD77E18549615E994200DD74E1FC
S11336208349615E994200DD75E18249615E994298
S113363000DD72E18049615E994200DD7BE17F49F2
S1133640615E994200DD6EE1B5210901615E994236
S113365000DD6AE17A49615E994200DD6DE17949F4
S1133660605ED917C70F834279410A31404600286A
S113367000DA87E0744FE35B03931BB2F02B00D1B5
S113368066E0EF2B47DC53009A18D20049B2511878
S11336908800D8222018D2008358013342D03388BE
S11336A04900049377881BB298468B46631890218F
S11336B0890006973FB2BC468A465F5E6146C91BD5
S11336C0CF17C91979405F468946395F4746791A49
S11336D0CF17C919794049440191B18890270591C0
S11336E009B20791FF00DF5F0799C91BCF17C919FA
S11336F079408946019989444F46312F00DD7AE0AB
S1133700049F59460F53748851465C52B4889026DE
S1133710F6009C53855009B03CBC90469946A2469D
S1133720AB46F0BD338849000B53091990238946F1
S11337309B00718898464B4643441980B688902371
S1133740DB004946CE52039B85500133E353E2E745
S113375053009A18D20049B251188A00D823A218EB
S1133760DB00D75830884900085301370DD07088E2
S11337706418902189006052B0889021C900605279
S1133780D550C8E70C31C9B274E777889020611826
S113379080000F52B6889020C0000E52D820C0007E
S11337A000198446E046D550002000260027A44690
S11337B0424600231168A94204DA4C1C02D01E1CA4
S11337C0071C0D1C0133DBB20432182BF2D101307B
S11337D06021C0B288440C28EAD17FB27B00DB1997
S11337E076B2DB009B19B133FF33012264469B00A0
S11337F052421A518FE79020002600270023C00070
S1133800029601979B46079F814666460795584650
S113381059464500C9B25D448C4600230022ED00A0
S1133820009632E0420B0000440B0000460B0000FF
S1133830480B00004A0B00004C0B00004E0B00002C
S1133840520B0000540B0000560B00005100085F9F
S113385062184146081AC617801970405646915F8F
S1133860009E0133711ACE17891971404E464118D2
S1133870905FDBB2381AC2178018504009183129FA
S113388000DC48E75AB2182A0FD0D820AA18400002
S11338901118890009590131D8D15A1C0293D3B2A5
S11338A0624601925AB2182AEFD101239B4458462A
S11338B0009E0C28ABD10199029B4AB259B2530025
S11338C09B18DB005B18049E5A009021069F165338
S11338D08900A218575205989021B133079DC90059
S11338E0FF3350529B00039A1D51174B0132E25291
S11338F011E7042281E600227FE60121B6E60122D7
S11339007BE60021B2E60221B0E60321AEE6032203
S113391073E6022271E60421A8E60521A6E6052243
S11339206BE6082269E60721A0E608219EE6062246
S113393063E6072261E6062198E6092196E60A2253
S11339405BE6092259E6C046560B0000F0B55F4617
S113395056464D464446F0B40C1C8BB0051C096811
S1133960C06807F085F961688046286907F080F926
S1133970A168071C686907F07BF9AB6A061CE1685B
S11339804046994607F086F821698246381C07F0BC
S113399081F801900199504606F078FD61698346EB
S11339A0301C07F077F802900299584606F06EFD35
S11339B0494607F06FF807F0C5FAA169E880404668
S11339C007F068F8E1690390381C07F063F8049085
S11339D00499039806F05AFD216A8346301C07F0C7
S11339E059F805900599584606F050FD494607F0E8
S11339F051F807F0A7FA2881616A404607F04AF8AF
S1133A00A16A8346381C07F045F8011C584606F0A5
S1133A103DFDE16A8346301C07F03CF8011C584622
S1133A2006F034FD494607F035F807F08BFA0199A2
S1133A306881504606F02AFD029906F027FD049994
S1133A40A861039806F022FD059906F01FFD616A3E
S1133A50E861404607F01EF8A16A8046381C07F06A
S1133A6019F8011C404606F011FDE16A071C301CE0
S1133A7007F010F8011C381C06F008FD28620BB092
S1133A803CBC90469946A246AB46F0BDF0B55646BE
S1133A904D4644465F46F0B49BB0041C0E91506AF8
S1133AA0A0490F9206F056FE0690201C483001F003
S1133AB0CBFC9D49002665180021B000F3B28019A3
S1133AC029605AB2400082182E3292000133A218A3
S1133AD0DBB251605AB2032AF5DD01360435042EF7
S1133AE0EBD1522600236E4415AA3380002613809E
S1133AF00B960A96E4210E9EBA22C900120171188F
S1133B00B2180C96002609960596002608910D9287
S1133B100796089B0C9A984660235B429844924609
S1133B20C146E4E05146099E0020085E33B2C01A43
S1133B3007F028FA902189000B1C53440B9E071CA4
S1133B400022985E33B2C01A07F01CFA9021C90013
S1133B500B1C53440A99061C0022985E0BB2C01A2F
S1133B6007F010FA051C391C069806F093FFF7229B
S1133B70071C9200A050391C06F08CFFFA239B000E
S1133B80E050311C0290069806F084FFF821061CD0
S1133B9089006050311C06F07DFFFB229200A0508A
S1133BA0291C0390069806F075FFF9239B00051C59
S1133BB0E050291C06F06EFFFC218900605004903F
S1133BC00399029806F062FC049906F05FFC8046B3
S1133BD0414606F05FFF011C079806F057FC391CAC
S1133BE00790404606F056FF4F4A011CA05806F0C5
S1133BF04DFC4D4B311CE050404606F04BFF8122FA
S1133C00D200011CA05806F041FC48498123DB0086
S1133C10E0508B464046291C06F03CFF5A46011CE6
S1133C20A05806F033FC5B46E0508223DB00E058EA
S1133C3041469B4606F02AFCBC2259466050A058D7
S1133C400299904606F022FC4146C0226050311C85
S1133C50381C904606F01EFF4346011CE05806F04F
S1133C6015FC4146C4226050381C291C904606F0BD
S1133C7011FF4346011CE05806F008FC4146C822E7
S1133C806050A058391C904606F000FC4146605034
S1133C90E827E059039906F0F9FB291CE051301C90
S1133CA006F0F8FEEC27011CE05906F0EFFBE051AA
S1133CB0F027E059311C06F0E9FB8A267600E05132
S1133CC0A059049906F0E2FBA0518C267600A05975
S1133CD0291C06F0DBFB059BA05101339BB2059325
S1133CE00422089E022391449A44B14520D04946B7
S1133CF009680131F4D0059E002E00D012E790220D
S1133D00D200131C53441B889026B6000A93331C1C
S1133D10534451461B88098800250B9309912E1C96
S1133D202F1C20E700004842040400000C0400009B
S1133D304E46603608960C9E0D9930360C96089EB9
S1133D408E4200D0E5E6099914AE318052220B9ED2
S1133D506A4416800A9E15A90E80059E002730B27B
S1133D6007F010F9A0235B00E0500599FC4B0E9E70
S1133D70BC25F15293239B009846BE00F619F9B274
S1133D8076004BB2B1469E004A46B4469818634446
S1133D9080005B002018DB1942599B000131E318B5
S1133DA04646C9B25A519A514BB28251032BEADDAD
S1133DB00137042FE1D1932189009D2263189200D9
S1133DC0A7261693B600A318B12117938900A31947
S1133DD0189363181993009716A811A912AA13AB84
S1133DE001F0E6FE8123DB00E358DE4A8221C900AC
S1133DF0A2589946615893239B00101C8B46E158A6
S1133E00904606F047FE002106F040FB94239B00F9
S1133E10E158051C484606F03DFE011C281C06F02E
S1133E2035FBD14E9523A6599B00E158051C301C47
S1133E3006F030FE011C281C06F028FB96239B008C
S1133E40E158051C584606F025FE011C281C06F006
S1133E501DFBF7239B00E0509D239B00071CE158AA
S1133E60404606F017FE002106F010FB9E239B003F
S1133E70E158051C484606F00DFE011C281C06F0FE
S1133E8005FB9F239B00E158051C301C06F002FE35
S1133E90011C281C06F0FAFAA0239B00E158051C1B
S1133EA0584606F0F7FD011C281C06F0EFFAF8232B
S1133EB09B00E050A7239B00E158B246061C4046F5
S1133EC006F0E8FD002106F0E1FAA8239B00E15882
S1133ED0051C484606F0DEFD011C281C06F0D6FA37
S1133EE0A9239B00E158051C504606F0D3FD011C94
S1133EF0281C06F0CBFAAA239B00E158051C58465F
S1133F0006F0C8FD011C281C06F0C0FAF9239B002A
S1133F10E050B1239B00051CE158404606F0BAFD71
S1133F20002106F0B3FAB2239B00E1580290484600
S1133F3006F0B0FD011C029806F0A8FAB3239B001A
S1133F40E1580290504606F0A5FD011C029806F0C7
S1133F509DFAB4239B00E1580290584606F09AFD5E
S1133F60011C029806F092FAFA239B00E05002909A
S1133F704146381C06F08EFD002106F087FA4946BA
S1133F808046301C06F086FD414606F07FFA514615
S1133F908046281C06F07EFD414606F077FA594615
S1133FA08046029806F076FD011C404606F06EFA43
S1133FB0011C06F06BFA011C079806F059FEBC239D
S1133FC0E1580390381C06F065FD002106F05EFA06
S1133FD0C023E1588046301C06F05CFD011C4046BD
S1133FE006F054FAC423E1588046281C06F052FD1A
S1133FF0011C404606F04AFAC823E158804602985C
S113400006F048FD011C404606F040FA554AE423F8
S1134010A0508146E158381C06F03CFD002106F012
S113402035FAE823E1588046301C06F033FD011CC4
S1134030404606F02BFAEC23E1588046281C06F093
S113404029FD011C404606F021FAF023E158804680
S1134050029806F01FFD011C404606F017FA812362
S1134060DB00E05086235B00E1588246381C06F0F2
S113407011FD002106F00AFA88235B00E15880460E
S1134080301C06F007FD011C404606F0FFF98A23A8
S11340905B00E1588046281C06F0FCFC011C4046ED
S11340A006F0F4F98C235B00E1588046029806F090
S11340B0F1FC011C404606F0E9F92B499A235B0008
S11340C060508346E158381C06F0E4FC002106F0F9
S11340D0DDF99C235B00E1588046301C06F0DAFCD5
S11340E0011C404606F0D2F99E235B00E15880464D
S11340F0281C06F0CFFC011C404606F0C7F9A0239B
S11341005B00E1588046029806F0C4FC011C40465E
S113411006F0BCF98222D200A0508046391C4846E1
S113412006F0B8FC011C039806F0B0F9311C814676
S1134130504606F0AFFC494606F0A8F9291C814612
S1134140584606F0A7FC494606F0A0F902998146B4
S1134150404606F09FFC494606F098F906E0C04642
S1134160560B0000040400000C040000FC218046EF
S11341708905381C06F08EFCFC21071CE0638905C8
S1134180301C06F087FCFC21061C20648905281CD1
S113419006F080FC391C051C6064381C06F07AFCAF
S11341A0029906F073F9311C071C301C06F072FCEE
S11341B0011C381C06F06AF9291C061C281C06F090
S11341C069FC011C301C06F061F904F031FD314B2F
S11341D00E9EE066F05E06F0D5FE011C404606F039
S11341E0B9FA04F025FD2C4906F054FCE76E051CD1
S11341F0391C381C06F04AF9011C381C06F04AFC2C
S1134200011C281C06F0A6FA24492067E06B06F07E
S113421041FC0F9E14A9756A061C0020085E06F076
S1134220B1FE291C06F036FC011C301C06F02EF9E8
S11342301A49E063206C06F02DFC52226A44061CE5
S11342400020105E06F09EFE291C06F023FC011CD3
S1134250301C06F01BF911492064606C06F01AFC4E
S113426015AB061C0020185E06F08CFE291C06F017
S113427011FC011C301C06F009F908496064381C63
S113428006F008FCE0661BB03CBC90469946A2468A
S1134290AB46F0BD560B00000000C8420000484287
S11342A0F0B55F464D4656464446F0B493B0834657
S11342B00C91506A6E490E9206F04CFA422100238A
S11342C06944069010AA11A803800B801380002172
S11342D000205D468C00CBB264185AB26400A21868
S11342E02E3292000133AA18DBB250605AB2062A69
S11342F0F5DD01310729EDD110AB1B884224099368
S11343006C442488AB460B9411AD2D880C9C0A9503
S1134310E425ED0065190795BA252D0165190F955A
S1134320F7250D94AD00002405942C1C5C440894DE
S11343305E46079C0D9D603C03950494049D2D6886
S1134340013500D1B6E0059C039D002C00D171E23B
S1134350099C0020285E23B2C01A06F013FE039DB8
S1134360071C902080002B180B9C0021585E23B260
S1134370C01A06F007FE039C051C9020C0002318F9
S11343800A9C0021585E23B2C01A06F0FBFD041CEF
S1134390391C069806F07EFB071CFA208000375073
S11343A0391C381C06F076FBF721890082467050D0
S11343B0291C069806F06EFBFB229200051CB050E7
S11343C0291C06F067FBF8239B00F0508146211C52
S11343D0069806F05FFB041CFC2080003450211C6E
S11343E0201C06F057FBF921D42289008046705026
S11343F0B058514606F04AF8D423F050FC217058C6
S1134400494606F043F8FC229223B0505B00F05872
S11344104146994606F03AF84B46F050A6235B0015
S1134420F058391C984606F031F8BA2741467050C6
S11344307F00F059291C06F029F8CE25F0516D00B3
S11344407059211C06F022F8089A002370519346F3
S11344509A46BC275A46126851465546CCB29146F4
S1134460111CAA005244520063B2904607E0C046B1
S1134470000048421A1CF6329200B21851684344B4
S11344809B004846F51806F005FB011CE85905F0A9
S1134490FDFF0134E4B263B2E851052BEADD0124E7
S11344A0A24404255046AB440628D3D1059B0133CE
S11344B09BB20593039D049C02350395079D043428
S11344C00494AC4200D039E7603407940D9C079DF6
S11344D030340D940F9CA54200D02AE7099C10ADFE
S11344E02C800B9C42256D442C800A9C11AD2C80A1
S11344F0059DB34628B206F045FDE2235B00F0506B
S1134500059D0C9CDB4BBC20E5529A25AE248626E7
S11345106D00640001228446E4277600A946A24681
S113452053B299005C4660186546C9184559C900DC
S11345305944BC246550012B00D197E1C459C025CE
S11345406C50022B00D191E18459C4256C50032B8B
S113455000D18BE14D464559C8246550042B00D148
S113456084E155464059C8314860062B00D07DE1AE
S1134570CC204000031CDE215B4449005A680B1C1C
S11345805B445A6093239B001A1C5846BC3008991C
S11345905A44072301F0CCF8F7239B005C46E55806
S11345A0F8239B00E458291C201CFBF7EDFF061C94
S11345B0731E9E41002800D12C1CF9239B005846F1
S11345C0C558211C281CFBF7DFFF0227002800D157
S11345D0371C281C211CFFB2FBF7D6FF002800D192
S11345E0251CFA239B005946CC58291C201CFBF798
S11345F0CBFF0326002800D13E1C201C291CF6B248
S1134600FBF7C2FF002800D12C1CFB239B005A4659
S1134610D558211C281CFBF7B7FF0427002800D11C
S1134620371C281C211CFFB2FBF7AEFF002800D169
S1134630251CFC239B005C46E658291C301CFBF718
S1134640A3FF331C002800D12B1C181CFD239B0046
S11346505A46D158FBF7ACFF0624002808D1301C79
S1134660291CFBF791FF0524002800D13C1C64B2EF
S11346705E467436301C002100F0F4FEA40093233F
S11346805C449B00E7585B465F67B1239B00BF21F6
S1134690E058090606F0FEF9391C06F05BF85D46A1
S11346A09D23E8639B00E55858468423C550291C84
S11346B0381C06F0EFF9BB239B00BF218046090696
S11346C0E05806F0E7F9291C06F044F85946A723F8
S11346D008649B00E7589423CF50381C414606F0E9
S11346E0D9F9C5239B00BF21051C0906E05806F033
S11346F0D1F9391C06F02EF85A4650640021281CC2
S1134700FBF742FF002800D0A4E0CF239B00E7582A
S11347105A46D26B5B46596F101C904606F0BAF9A4
S1134720011C404606F0B6F9391C06F0A1FA804691
S11347305846076C84235A46D158381C06F0AAF907
S1134740011C381C06F0A6F9011C404605F09EFE2B
S11347505B465F6C5A469423D1588046381C06F059
S113476099F9011C381C06F095F9414605F08EFEB6
S1134770F7239B000C99E4583E4B071CC85E06F0D7
S113478001FC64006408011C201C05F0E3FF7C00AC
S113479004F04EFA6408384906F07CF9211C05F04F
S11347A0D9FF5A4610673549281C04F0A5F8011CA6
S11347B0301C00F061FE201C04F03AFA3049071C5A
S11347C0281C04F099F82C49041C381C06F062F9E2
S11347D0211C06F05FF95B46D8665846483000F065
S11347E033FE351C5E463C360024296848004008E8
S11347F004F01EFA2B1C2C3B18601F49306806F08D
S113480049F910AA071C105F06F0BCFB0E9B02348A
S1134810596A06F03FF9011C381C05F037FE1035C3
S113482001C6062CE1D113B03CBC90469946A24681
S1134830AB46F0BD9020C0002B181B889021890046
S11348402C880A936B181B88099400240B93251C4D
S1134850271C9DE5301C00F03FFECF239B00E05851
S1134860802109064718E7506D1851E70132D2B28A
S113487056E6C046560B000000004842ABAAAABE4A
S1134880ABAA2ABEF0B55F464D4656464446F0B440
S113489099B083461291506A8A49149205F05AFFDE
S11348A05A21002369440A9016AA17A803800B8092
S11348B01380002100205D468C00CBB264185AB2EC
S11348C06400A2182E3292000133AA18DBB25060A1
S11348D05AB2092AF5DD01310A29EDD116AB1B883C
S11348E05A240F936C442488AB46119417AD2D8839
S11348F0129C1095E425ED0065190D95BA252D013E
S113490065191595F7251394AD00002409942C1C02
S11349105C440E940D9C139D603C07940695079D82
S11349205C462D68013500D1EEE0099D002D01D1D2
S113493000F05EFC069D0020285E0F9D2BB2C01A7D
S113494006F020FB069D071C902080002B18119D6B
S11349500021585E2BB2C01A06F014FB9021051CEE
S11349600698C900431810990022985E0BB2C01A29
S113497006F008FB061C391C0A9806F08BF8FD218A
S11349808900804660500A99281C06F083F8FE22AC
S11349909200051CA050311C0A9806F07BF8FF23F6
S11349A09B008346E0504146404606F073F8F721E9
S11349B08900605008904146404605F067FD291C77
S11349C0061C06F067F8F8229200A050814659466A
S11349D0301C06F05FF8F9239B00E050291C0B9073
S11349E0281C06F057F8071CFA2080002750291CC1
S11349F0281C05F04BFD594606F04CF8FB218900B4
S1134A00061C60505946584606F044F8FC23E02240
S1134A109B00A158E0500C900898924605F036FD92
S1134A20514684235B006050E15848469A4605F09D
S1134A302DFD52469823A0505B00E1580B989946EF
S1134A4005F024FD4B46E050AC235B00E158381CD4
S1134A50994605F01BFDC027494660507F00E15987
S1134A60301C05F013FDD426E0517600A1590C98B2
S1134A7005F00CFDA051E8267600A059414605F04A
S1134A8005FDA051FC267600291CA05905F0FEFC6A
S1134A908825AD00A0515946605905F0F7FC0E9ADF
S1134AA00023605193469A46BC2752465146D5B2DC
S1134AB05B468A001B68524452009946181C904673
S1134AC06BB206E0000048421A1CF6329200A218AB
S1134AD0506843449B004946E61805F0DBFF011C7F
S1134AE0F05905F0D3FC0135EDB26BB2F051082B4F
S1134AF0EADD0125AA440420514683440929D4D17E
S1134B00099B01339BB20993079D0D9804350795C2
S1134B10069D02350695079D854200D001E7A34610
S1134B20139C603530341394159C0D95A54200D028
S1134B30F0E60F9C16AD2C80119C5A256D442C80F8
S1134B40109C17AD2C80099DBC2728B206F01AFAD8
S1134B5092239B005946C850099DA04B129C0120EA
S1134B60E552AE235B009846C2235B009946D623E8
S1134B705B00E4269A4643B29A005C46A118D21818
S1134B80D200CC595A44BC25AC50012B00D141E38E
S1134B908C59C025AC50022B00D13BE386256D0017
S1134BA04D59C424A550032B00D133E39A256D003D
S1134BB04D59C824A550042B00D12BE345464D592B
S1134BC0CC24A550052B00D124E34D464D59D024C7
S1134BD0A550062B00D11DE355464D59D424A550AC
S1134BE0072B00D116E3EA256D004959D4325160F0
S1134BF0092B00D00EE387208000031C90215C4623
S1134C0093255B448900BC34AD005A680A940B1C9C
S1134C102C1C5C445B445A600A98221C0E990A239B
S1134C20069400F085FDF7239B005D46EC58F823BD
S1134C309B00ED58201C291CFBF7BAFC061C731EB4
S1134C409E41002800D1251CF9239B005846C458D6
S1134C50291C201CFBF798FC0227002800D1371CD4
S1134C60201C291CFFB2FBF78FFC002800D12C1C50
S1134C70FA239B005946CD58211C281CFBF784FCC1
S1134C800326002800D13E1C281C211CF6B2FBF789
S1134C907BFC002800D1251CFB239B005A46D458DA
S1134CA0291C201CFBF770FC0427002800D1371CAA
S1134CB0201C291CFFB2FBF767FC002800D12C1C28
S1134CC0FC239B005846C558211C281CFBF75CFCA0
S1134CD00526002800D13E1C281C211CF6B2FBF737
S1134CE053FC002800D1251CFD239B005946CC58B9
S1134CF0291C201CFBF748FC0627002800D1371C80
S1134D00201C291CFFB2FBF73FFC002800D12C1CFF
S1134D10FE239B005A46D558211C281CFBF734FC63
S1134D200726002800D13E1C281C211CF6B2FBF7E4
S1134D302BFC002800D1251CFF239B005C46E75870
S1134D40291C381CFBF720FC3B1C002800D12B1C21
S1134D50181C8023DB005A46D158FBF729FC092490
S1134D60002808D1381C291CFBF70EFC0824002855
S1134D7000D1341C64B2A40093235C449B00E35828
S1134D805D466B679D239B00E3588022AB50AB6765
S1134D90A7239B00E3588C22AB50EB67B1239B0005
S1134DA0E2588423EA50BB239B00E3589022AB5083
S1134DB08822AB50C5239B007420E258824694237A
S1134DC0DA44EA50504600F061FC0021051CFBF770
S1134DD0DBFB002800D020E202E0C046560B0000B6
S1134DE058469830514600F095FBCF239B00E3587A
S1134DF05A469946D9239B00E35848460993E3232E
S1134E009B00E35807939823D15805F043FE0021F3
S1134E1005F03CFB9C235A46D158061C099805F022
S1134E2039FE011C301C05F031FBA0235A46D15831
S1134E30061C079805F02EFE011C301C05F026FB0D
S1134E40BF21090605F026FE5B465A46D863A42313
S1134E50D1588046484605F01DFE002105F016FB9A
S1134E60A8235A46D158061C099805F013FE011CC4
S1134E70301C05F00BFBAC235A46D158061C07988E
S1134E8005F008FE011C301C05F000FBBF210906DB
S1134E9005F000FE5B465A461864B023071CD1583F
S1134EA0484605F0F7FD002105F0F0FAB4235A4610
S1134EB0D158061C099805F0EDFD011C301C05F0C5
S1134EC0E5FA5A46B823D158061C079805F0E2FDC6
S1134ED0011C301C05F0DAFABF21090605F0DAFDE1
S1134EE05B465864061C596F404605F0D3FD011C0F
S1134EF0404605F0CFFD81465846816F081C05F0F9
S1134F00C5FA011C404605F0C5FD391C05F0C2FD7B
S1134F10011C484605F0BAFA5A46D16F8146081C6E
S1134F2005F0B4FA011C404605F0B4FD011C301C28
S1134F3005F0B0FD011C484605F0A8FA84225B4642
S1134F4099588046381C05F0A5FD011C381C05F055
S1134F50A1FD011C404605F099FA88239946804634
S1134F60584648440168081C05F090FA011C381C96
S1134F7005F090FD011C301C05F08CFD011C404621
S1134F8005F084FA942188465A4642441168071C65
S1134F90301C05F07FFD011C301C05F07BFD011C5D
S1134FA0381C05F073FAED239B00E15805F060FE10
S1134FB04000400803F03CFE5B46D866F7239B00A4
S1134FC01299E458A24B6400C85E05F0DBFF640844
S1134FD0011C201C05F0BEFB03F02AFE5A469D4925
S1134FE0D46E05F057FD211C061C201C05F052FD53
S1134FF0011C301C05F0AEFB5B46186714989549FC
S1135000466AD86B05F046FD16A9071C0020085E09
S113501005F0B8FF311C05F03DFD011C381C05F0FE
S113502035FA5A46D0638B49106C05F033FD5A2388
S11350306B44071C0020185E05F0A4FF311C05F02A
S113504029FD011C381C05F021FA59460864486CF6
S1135050804905F01FFD17AA071C0020105E05F00B
S113506091FF311C05F016FD011C381C05F00EFAE9
S11350705B4658647749201C05F00CFD5C46E066ED
S11350807549281C03F038FC011C504600F0F4F963
S1135090281C7249E46E03F02FFC011C201C05F04F
S11350A0F9FC5D46E866686FA96FBC23E850EA6FB7
S11350B0C023E950C423EA508023EA58E423EA5089
S11350C08423EA585C46E8234C44EA502268EC23E3
S11350D0EA508C23EA5886235B00EA509023EA586E
S11350E088235B00EA5045442A688A235B005846BB
S11350F0C2500E990A98069A032300F019FB069CE5
S11351000025C8214900631818680135400040088B
S113511003F08EFD03F08CFD061C311C206805F0A5
S1135120B9FC311C2060A06A05F0B4FC311CA062FB
S1135130206D05F0AFFCEDB220650434032DE0D101
S1135140069E0024756833680795B5689A460695E7
S1135150A946181C079D6300E7B21B19A8460A93C9
S11351607DB211E0AB005B19DB0092205B44800050
S113517093211A18890050685A185268904694224C
S113518092009B185B689946514605F083FC002108
S113519005F07CF907990990404605F07BFC011C59
S11351A0099805F073F906998046484605F072FCA3
S11351B0011C404605F06AF90A995A464B19123304
S11351C09B0098506B005B191B1901371233FFB217
S11351D09B007DB29850022DC4DD01342836032C87
S11351E0B0D119B03CBC90469946A246AB46F0BD3E
S11351F0069D9020C0002B181B88902189001093D5
S11352006B181B882D8800260F951193351C371CAD
S1135210FFF7B1FB0130C0B2ADE4504600F05CF9D9
S1135220CF239B00E158802000060A18E250D923BE
S11352309B00E1582D180A18E250E3239B00E15823
S11352400A18E250ED239B00E1580A18E250C7E522
S1135250560B000000004842ABAAAABEABAA2ABE65
S1135260F0B556464D4644465F46F0B483B002F06E
S113527077FD002003F0D4F8002003F09BF8614B85
S113528005221A606049614A614D5A6088468868FF
S1135290291C02F0EBFD5F4C03236371002323718F
S11352A043460026186925825B49012566612672FA
S11352B025706570A570E680FCF7BAF84146086968
S11352C05649FCF747F8564A5649101C9246FEF7D1
S11352D0C5F8554AA023D554544A0027D554544BF5
S11352E07E2299464946A823CD54524B5249DA703E
S11352F09A705A701A704246D068012203F09AF9E3
S1135300002003F095F8E6602379002BFCD0534687
S11353109D6B81212771281CC905FBF73FF90028E3
S113532041D00936B6B2182E47D802F0E5FA4946FC
S1135330C86805F007FE20236A4680B283461370CE
S1135340177100B26421FBF76DF8642385B25B42E8
S11353506B435B449BB29B4698B22023002D02D042
S11353602B1C3033DBB269464B7000B20A21FBF7C9
S113537059F80A2280B2524242435A4492B2054337
S11353802023002D02D0031C3033DBB269468B701E
S1135390131C30336846CB70FBF7E2FA4246D06800
S11353A0FCF77AF9B0E7281C2449FBF7F7F8002842
S11353B008D00736B6B2182EB7D9002003F000F88B
S11353C00026B2E78221281CC905FBF7E7F800286C
S11353D002D00536B6B2A6E7281C1949FBF7DEF859
S11353E0002802D00336B6B29DE7281C1549FBF706
S11353F0D5F8002802D10136B6B294E70236B6B227
S113540091E7C04610E000E01CE3FF1FFFFFFF0030
S11354108813000004F6FF1F88E4FF1F1CF6FF1F1B
S1135420ECF1FF1F44E5FF1F9CF0FF1FA0E4FF1FEA
S113543040F1FF1F64E3FF1F68E4FF1F0000D0403A
S11354400000304100007041FE22002392054360B9
S113545083600260C360436102618361C36102626D
S11354607047C046016041608160C1600161416173
S11354708161C1610162704738B5041C00680D1C6C
S113548005F008FB291C2060606805F003FB291C5B
S11354906060A06805F0FEFA291CA060E06805F0D1
S11354A0F9FA291CE060206905F0F4FA291C20614E
S11354B0606905F0EFFA291C6061A06905F0EAFA59
S11354C0291CA061E06905F0E5FA291CE061206A65
S11354D005F0E0FA206238BD0168802212068B18BC
S11354E0416803608B18816843608B18C1688360CE
S11354F08B180169C3608B18416903618B1881693A
S113550043618B18C16983618B18016AC3618B186D
S113551003627047F0B55F4656464D464446F0B4C4
S11355200B6983B099460B6A4E690D1C041C191C47
S113553048469A4605F0AEFA311C071C301C05F0AB
S1135540A9FA011C381C05F093FBAF686B68391C81
S11355508346301C984605F09DFA4146019050461A
S113556005F098FA011C019805F082FB4146824639
S1135570301C05F08FFA391C061C484605F08AFADF
S1135580011C301C05F074FB29688146584605F05F
S113559081FA5146061C404605F07CFA011C301C79
S11355A004F074FF4946061C381C05F073FA011C0C
S11355B0301C04F06BFF0026311C071CFAF7DEFFD9
S11355C0002811D0FE239B056660A6602360E66078
S11355D066612361A661E661236203B03CBC904628
S11355E09946A246AB46F0BDFE20391C800505F065
S11355F0B1F8061C311C584605F04CFA311C2060E9
S1135600504605F047FA311C6060E060484605F0FA
S113561041FAA060A0612F68AB68296A381C9846DB
S113562005F038FA41468146404605F033FA011C3C
S1135630484605F01DFB311C05F02CFA2061696811
S1135640404605F027FA69698046381C05F022FABD
S1135650011C404605F00CFB311C05F01BFA60618F
S1135660E0616B682969381C984605F013FA4146D5
S1135670051C404605F00EFA011C281C05F0F8FA3A
S1135680311C05F007FA2062A7E7C046F8B5036AA3
S11356905F4656464D46444699464369F0B406690A
S11356A09A46C369041C8569C7684946301C9846F4
S11356B005F0F0F941468346504605F0EBF9011C2C
S11356C0584605F0D5FA216805F0E4F9291C83460B
S11356D0504605F0DFF9391C8246484605F0DAF9F0
S11356E0011C504605F0C4FA616805F0D3F9011CA9
S11356F0584604F0CBFE391C8146404605F0CAF9F1
S1135700291C071C301C05F0C5F9011C381C05F0C8
S1135710AFFAA16805F0BEF9011C484604F0B6FED4
S11357203CBC90469946A246AB46F8BD000000003A
S1135730F0B55F4656464D464446F0B495B00590E4
S11357400B910D920493002B00DC28E2181C013805
S1135750C3B2151C01332C225A430E1C0499FE2794
S113576089001190914688460024BF05281C4246B2
S1135770002106F0D3FE0D9A059B17511B592C34BA
S113578008C628354C45F1D111981021C3B29A00AE
S1135790D3185B0010931391059B119900220026E6
S11357A0049D1292371C101C994688467AB24245D1
S11357B017DA0137FFB27BB29D42F7DD9600B618C7
S11357C0F6004E443C1C9B00995901344900490899
S11357D0E4B204F05BFE63B29D42F4DC7AB242456B
S11357E0E7DB00211290FAF7E3FE0022002800D143
S11357F0BBE1119853B2834200DBB6E10132D2B26D
S1135800D0B241B2099004980A91884200DCA6E122
S113581099008B4605985B440B99DB00C3180193F0
S11358200B1C5B440793531E023AD2B291008A18B0
S113583052000E920D9A09980A9928325BB206908A
S113584003910F920C935F46039B019998000E18E5
S1135850346802906000400800210893FAF7A8FE1B
S1135860002800D171E10B9A9246029A9244079A59
S113587053461168186805F0FBF9FC21890505F009
S113588009F9211C04F066FF8146494605F002F936
S1135890FE21890504F0FAFD03F0CAF94B4680465F
S11358A05800400806F05EFD041C40460D1C06F03E
S11358B059FD021C0B1C201C291C05F0ADFB021C0D
S11358C00B1CBA49B84805F099FE06F09BFD00216F
S11358D080464846FAF758FE002800D059E1414670
S11358E0404605F0D7F8FE21890504F0CFFD03F00A
S11358F09FF9011CFE20800504F02CFF051C291CC7
S1135900404605F0C7F8FE21041C8905281C04F054
S1135910BDFD011C201C04F01DFF3168051C404620
S113592005F0B8F8079980460868414605F0A0F9E3
S1135930079A534610601868414604F0A7FD049B7B
S11359405146002208603260002B3ADD0D99029A1C
S113595003988E1810990F9A43189B00D21883004D
S11359605B42B94693469A46A846271C5346F51807
S113597048462C584046211C05F08CF8316804F048
S113598085FD391C05F086F8011C201C05F070F912
S11359904946685035684146281C05F07BF8011CCF
S11359A0201C05F065F9391C05F074F8011C281C4D
S11359B004F06CFD306028365E45D7D13C1C45466A
S11359C04F460C9800283CDD05980299039A461826
S11359D00E9803991318059A9B002832D2188B004D
S11359E05B42B94693469A46A846271C5246B518C8
S11359F04B46EC584046211C05F04CF8316804F045
S1135A0045FD391C05F046F8011C201C05F030F951
S1135A104946685035684146281C05F03BF8011C8E
S1135A20201C05F025F9391C05F034F8011C281C4C
S1135A3004F02CFD306028365E45D7D13C1C454629
S1135A404F460A9A039B9A423ADA09982A1C43B2AF
S1135A50051C0398A046BB468246914601999E00C8
S1135A60059A8F19F6183C68029BF6009619F618E9
S1135A70211C484605F00EF8316804F007FD414644
S1135A8005F008F8011C201C05F0F2F838603768AE
S1135A904946381C04F0FEFF011C201C05F0E8F800
S1135AA0414604F0F7FF011C381C04F0EFFC0135FB
S1135AB0EDB26BB230605345D0DB44464D465F4691
S1135AC0069B0133DBB25AB20693049B03929342C2
S1135AD045DD02980899161C4318059ADB00D21874
S1135AE0069B934699462B1CA0464D46BA469946BA
S1135AF00198B60087193C685E44211C484604F0AE
S1135B00C9FF316804F0C2FC414604F0C3FF011C24
S1135B10201C05F0ADF8386037684946381C04F09D
S1135B20B9FF011C201C05F0A3F8414604F0B2FFA4
S1135B30011C381C04F0AAFC0135EDB20499306054
S1135B406EB2B142D4DC57467EE6069B0133DBB22B
S1135B505AB20693049B0392934200DD74E6099AB9
S1135B60119853B2834200DA48E612980021FAF7FA
S1135B701FFD002806D0139B013BDBB21393002BBF
S1135B8000D009E615B03CBC90469946A246AB4607
S1135B90F0BD80200006031C434498469FE6013B69
S1135BA01193F1E5C046C046000000000000F03F3C
S1135BB0F0B55F4656464D464446F0B48DB09A461D
S1135BC016AB1B7804905BB2089109929B46002B9C
S1135BD000DC10E15E461A1C013E5046002106F02E
S1135BE09DFCF3B25A1C9B000027069692000026E7
S1135BF00433079702970A9203960B935746049926
S1135C0000220023894692469846514656467B56C2
S1135C10F6B20196012B3ED0002413E04A461268E6
S1135C20A3009E58414676007608301CFAF7CAFC59
S1135C30002803D0019B03950293B046013463B25C
S1135C409B4528DD3B5DE5B2002BE7D05BB2012B21
S1135C50F4DDFE26049FB6050025002358460024E3
S1135C60B446B8469E0041468F5900233A1C01337E
S1135C70DBB259B210C28142F9DB0135EDB26246A2
S1135C806BB2BA518342EDDB0DB03CBC90469946F1
S1135C90A246AB46F0BD0126B2445246042153B29B
S1135CA089449B45B1DC039E76B2BB191A780596EC
S1135CB0029E01321A7073B2059EB34200D195E080
S1135CC0049E9B009959059E049AB6009419226873
S1135CD00A9D01960023C858D658CE50D05004339C
S1135CE0AB42F8D10799029A099E7254089E039A0E
S1135CF072542368019E9846351C45442C68002143
S1135D00201CFAF73BFC002878D1FE20211C8005DA
S1135D1004F020FDFE230B999B052B600D1C061C33
S1135D20444645442068311C04F0B4FE01C4AC422E
S1135D30F8D1049A0A9E00230097914647469A4652
S1135D40B046059E9E4217D04B461D68019E002119
S1135D50AB191E681960331C00244646984639590D
S1135D60404604F097FE011C285904F081FF285195
S1135D700434A642F3D1B04653460133DBB29A460B
S1135D8004215BB289449B45DBD1079E009F013609
S1135D9073B207969B4500DD31E7069FFEB2F7B26A
S1135DA07BB2002B00DA6FE7049AB600043296192E
S1135DB0BC46099FFD56089FFC56A5420ED0594685
S1135DC000290BDD049BAD00A40004CB511912196A
S1135DD0086817680F601060B342F6D16746013F48
S1135DE0FFB27BB2BC46002BE3DA4DE70499B60060
S1135DF001968C1976E7013B0693CEE7FE27BF0593
S1135E000025002358460024BC4604999E008F595F
S1135E1000233A1C0133DBB259B210C28142F9DBD0
S1135E200135EDB262466BB2BA518342EDDB2BE72A
S1135E30F0B5454657464E46E0B40D1C4968041C6F
S1135E40081C04F027FEAE68071C311C301C04F04B
S1135E5021FE011C381C04F019FB2968071C081CCE
S1135E6004F018FE391C04F011FB0026311C804696
S1135E70FAF784FB002867D1381C311CFAF77EFB43
S1135E80002810D0FE27201C311CBF05FFF7EAFABA
S1135E9027612868311CFAF795FB002858D02E4B4F
S1135EA0A760A3614BE0381C02F0C2FE8246404664
S1135EB002F0BEFE071CFE20391C800504F04AFCDB
S1135EC051468046381C04F045FC4146071C2868AE
S1135ED004F0E0FDA0606868414604F0DBFD606109
S1135EE081464146A86804F0D5FD4146051C206260
S1135EF0504604F0CFFDA3682060984680231B061B
S1135F0098444946404604F0C5FD391C04F0C2FDDE
S1135F10291CE060404604F0BDFD391C04F0BAFDC4
S1135F20291CA0616660381C04F0B4FD80231B06A4
S1135F302061181C4844391C04F0ACFDE0611CBC11
S1135F4090469946A246F0BD201CFFF77DFAF6E77D
S1135F50014BA761A360F2E7000080BFF0B545469E
S1135F6057464E46E0B40D1C4968041C081C04F056
S1135F7091FDAE68071C311C301C04F08BFD011C24
S1135F80381C04F083FA2968071C081C04F082FDFD
S1135F90011C381C04F07AFA0026311C8046FAF7FA
S1135FA0EDFA002869D1381C311CFAF7E7FA002809
S1135FB010D0FE27201C311CBF05FFF753FA2761C0
S1135FC02868311CFAF7FEFA00285AD02F4BA76034
S1135FD0A3614DE0381C02F02BFE8246404602F0DD
S1135FE027FE071CFE20391C800504F0B3FB514634
S1135FF08046381C04F0AEFB2968071C404604F0B8
S113600049FDA0606968404604F044FD6061A968E8
S11360108146404604F03EFD4146051C2062504640
S113602004F038FDA3682060984680231B0698443A
